:020000040800F2
:1000000000500020255D0008795800087B58000842
:100010007D5800087F580008815800080000000043
:1000200000000000000000000000000083580008ED
:10003000855800080000000087580008895800080B
:100040006D5D00086D5D00086D5D00086D5D000868
:100050006D5D00086D5D00086D5D00086D5D000858
:100060006D5D00086D5D00086D5D00089558000825
:100070006D5D0008A55800086D5D00086D5D000805
:100080006D5D00086D5D0008B5580008C558000892
:10009000D55800086D5D00086D5D0008E95800083E
:1000A0006D5D00086D5D00086D5D00086D5D000808
:1000B0006D5D0008F5580008055900086D5D0008E1
:1000C0006D5D00086D5D00086D5D00086D5D0008E8
:1000D0006D5D00086D5D00086D5D00088D590008BC
:1000E000A55900086D5D00086D5D00080000000066
:1000F0000000000000000000000000000000000000
:0C01000000000000000000005FF808F1A3
:1001100010B5054C237833B9044B13B10448AFF341
:1001200000800123237010BD880200200000000021
:10013000E46A000808B5034B1BB103490348AFF359
:10014000008008BD000000008C020020E46A000866
:1001500081F0004102E000BF83F0004330B54FEA78
:1001600041044FEA430594EA050F08BF90EA020FE5
:100170001FBF54EA000C55EA020C7FEA645C7FEA78
:10018000655C00F0E2804FEA5454D4EB5555B8BF9B
:100190006D420CDD2C4480EA020281EA030382EA0C
:1001A000000083EA010180EA020281EA0303362D9E
:1001B00088BF30BD11F0004F4FEA01314FF4801C71
:1001C0004CEA113102D0404261EB410113F0004F83
:1001D0004FEA03334CEA133302D0524263EB43033A
:1001E00094EA050F00F0A780A4F10104D5F1200ED8
:1001F0000DDB02FA0EFC22FA05F2801841F1000133
:1002000003FA0EF2801843FA05F359410EE0A5F106
:1002100020050EF1200E012A03FA0EFC28BF4CF037
:10022000020C43FA05F3C01851EBE37101F00045ED
:1002300007D54FF0000EDCF1000C7EEB00006EEBFA
:100240000101B1F5801F1BD3B1F5001F0CD3490884
:100250005FEA30004FEA3C0C04F101044FEA4452DB
:1002600012F5800F80F09A80BCF1004F08BF5FEA62
:10027000500C50F1000041EB045141EA050130BD42
:100280005FEA4C0C404141EB010111F4801FA4F1E5
:100290000104E9D191F0000F04BF01460020B1FA3A
:1002A00081F308BF2033A3F10B03B3F120020CDA72
:1002B0000C3208DD02F1140CC2F10C0201FA0CF050
:1002C00021FA02F10CE002F11402D8BFC2F1200CB5
:1002D00001FA02F120FA0CFCDCBF41EA0C0190406B
:1002E000E41AA2BF01EB0451294330BD6FEA0404B4
:1002F0001F3C1CDA0C340EDC04F11404C4F120029F
:1003000020FA04F001FA02F340EA030021FA04F3B0
:1003100045EA030130BDC4F10C04C4F1200220FA07
:1003200002F001FA04F340EA0300294630BD21FA45
:1003300004F0294630BD94F0000F83F4801306BF0B
:1003400081F480110134013D4EE77FEA645C18BFFF
:100350007FEA655C29D094EA050F08BF90EA020F96
:1003600005D054EA000C04BF1946104630BD91EA8E
:10037000030F1EBF0021002030BD5FEA545C05D191
:100380004000494128BF41F0004130BD14F58004D0
:100390003CBF01F5801130BD01F0004545F0FE4144
:1003A00041F470014FF0000030BD7FEA645C1ABF79
:1003B000194610467FEA655C1CBF0B46024650EAB0
:1003C000013406BF52EA033591EA030F41F40021DC
:1003D00030BD00BF90F0000F04BF0021704730B562
:1003E0004FF4806404F132044FF000054FF0000137
:1003F00050E700BF90F0000F04BF0021704730B5F8
:100400004FF4806404F1320410F0004548BF4042CC
:100410004FF000013EE700BF42004FEAE2014FEA21
:1004200031014FEA02701FBF12F07F4393F07F4FFC
:1004300081F06051704732F07F4208BF704793F0FF
:100440007F4F04BF41F40021704730B54FF4607412
:1004500001F0004521F000411CE700BF50EA010215
:1004600008BF704730B54FF000050AE050EA0102BE
:1004700008BF704730B511F0004502D5404261EB2E
:1004800041014FF4806404F132045FEA915C3FF46F
:10049000D8AE4FF003025FEADC0C18BF03325FEA0C
:1004A000DC0C18BF033202EBDC02C2F1200300FABD
:1004B00003FC20FA02F001FA03FE40EA0E0021FAE2
:1004C00002F11444BDE600BF70B54FF0FF0C4CF4D0
:1004D000E06C1CEA11541DBF1CEA135594EA0C0F82
:1004E00095EA0C0F00F0DEF82C4481EA030621EABD
:1004F0004C5123EA4C5350EA013518BF52EA0335F8
:1005000041F4801143F4801338D0A0FB02CE4FF0A9
:100510000005E1FB02E506F00042E0FB03E54FF0D9
:100520000006E1FB03569CF0000F18BF4EF0010ED1
:10053000A4F1FF04B6F5007F64F5407404D25FEACD
:100540004E0E6D4146EB060642EAC62141EA555180
:100550004FEAC52040EA5E504FEACE2EB4F1FD0CC2
:1005600088BFBCF5E06F1ED8BEF1004F08BF5FEA40
:10057000500E50F1000041EB045170BD06F00046F2
:1005800046EA010140EA020081EA0301B4EB5C049F
:10059000C2BFD4EB0C0541EA045170BD41F4801197
:1005A0004FF0000E013C00F3AB8014F1360FDEBFBC
:1005B000002001F0004170BDC4F10004203C35DA98
:1005C0000C341BDC04F11404C4F1200500FA05F31B
:1005D00020FA04F001FA05F240EA020001F00042BC
:1005E00021F0004110EBD37021FA04F642EB060132
:1005F0005EEA430E08BF20EAD37070BDC4F10C045C
:10060000C4F1200500FA04F320FA05F001FA04F21F
:1006100040EA020001F0004110EBD37041F100010B
:100620005EEA430E08BF20EAD37070BDC4F1200516
:1006300000FA05F24EEA020E20FA04F301FA05F27E
:1006400043EA020321FA04F001F0004121FA04F226
:1006500020EA020000EBD3705EEA430E08BF20EAF6
:10066000D37070BD94F0000F0FD101F00046400030
:1006700041EB010111F4801F08BF013CF7D041EAB2
:10068000060195F0000F18BF704703F000465200B6
:1006900043EB030313F4801F08BF013DF7D043EA87
:1006A0000603704794EA0C0F0CEA135518BF95EA3D
:1006B0000C0F0CD050EA410618BF52EA4306D1D1C4
:1006C00081EA030101F000414FF0000070BD50EAE3
:1006D000410606BF1046194652EA430619D094EA6D
:1006E0000C0F02D150EA013613D195EA0C0F05D157
:1006F00052EA03361CBF104619460AD181EA0301AB
:1007000001F0004141F0FE4141F470014FF0000062
:1007100070BD41F0FE4141F4780170BD70B54FF0FD
:10072000FF0C4CF4E06C1CEA11541DBF1CEA13557D
:1007300094EA0C0F95EA0C0F00F0A7F8A4EB05045F
:1007400081EA030E52EA03354FEA013100F0888056
:100750004FEA03334FF0805545EA131343EA12631F
:100760004FEA022245EA111545EA10654FEA0026D4
:100770000EF000419D4208BF964244F1FD0404F58D
:10078000407402D25B084FEA3202B61A65EB0305E9
:100790005B084FEA32024FF480104FF4002CB6EBA6
:1007A000020E75EB030E22BFB61A754640EA0C0026
:1007B0005B084FEA3202B6EB020E75EB030E22BF66
:1007C000B61A754640EA5C005B084FEA3202B6EBA7
:1007D000020E75EB030E22BFB61A754640EA9C0066
:1007E0005B084FEA3202B6EB020E75EB030E22BF36
:1007F000B61A754640EADC0055EA060E18D04FEAF4
:10080000051545EA16754FEA06164FEAC30343EA93
:1008100052734FEAC2025FEA1C1CC0D111F4801F60
:100820000BD141EA00014FF000004FF0004CB6E759
:1008300011F4801F04BF01430020B4F1FD0C88BFF8
:10084000BCF5E06F3FF6AFAEB5EB030C04BFB6EB03
:10085000020C5FEA500C50F1000041EB045170BDF6
:100860000EF0004E4EEA113114EB5C04C2BFD4EB23
:100870000C0541EA045170BD41F480114FF0000EA7
:10088000013C90E645EA060E8DE60CEA135594EA23
:100890000C0F08BF95EA0C0F3FF43BAF94EA0C0F26
:1008A0000AD150EA01347FF434AF95EA0C0F7FF49B
:1008B00025AF104619462CE795EA0C0F06D152EAEF
:1008C00003353FF4FDAE1046194622E750EA4106D3
:1008D00018BF52EA43067FF4C5AE50EA41047FF4E4
:1008E0000DAF52EA43057FF4EBAE12E74FF0FF3C49
:1008F00006E000BF4FF0010C02E000BF4FF0010C1A
:100900004DF804CD4FEA410C7FEA6C5C4FEA430C92
:1009100018BF7FEA6C5C1BD001B050EA410C0CBFE1
:1009200052EA430C91EA030F02BF90EA020F002043
:10093000704710F1000F91EA030F58BF994208BFAA
:1009400090422CBFD8176FEAE37040F00100704767
:100950004FEA410C7FEA6C5C02D150EA013C07D1BE
:100960004FEA430C7FEA6C5CD6D152EA033CD3D009
:100970005DF8040B704700BF8446104662468C4603
:100980001946634600E000BF01B5FFF7B7FF002836
:1009900048BF10F1000F01BD4DF808EDFFF7F4FF5F
:1009A0000CBF012000205DF808FB00BF4DF808EDEA
:1009B000FFF7EAFF34BF012000205DF808FB00BF0D
:1009C0004DF808EDFFF7E0FF94BF012000205DF82F
:1009D00008FB00BF4DF808EDFFF7CEFF94BF0120E4
:1009E00000205DF808FB00BF4DF808EDFFF7C4FFDD
:1009F00034BF012000205DF808FB00BF4FEA410C26
:100A00007FEA6C5C02D150EA013C0AD14FEA430C08
:100A10007FEA6C5C02D152EA033C02D14FF0000045
:100A200070474FF0010070474A0011D212F50012D2
:100A300011D20DD56FF47873B3EB62520ED44FEA36
:100A4000C12343F0004343EA505323FA02F07047B6
:100A50004FF00000704750EA013002D14FF0FF30F4
:100A600070474FF0000070474FEA4102B2F1E04397
:100A700024BFB3F5001CDCF1FE5C0DD901F0004C85
:100A80004FEAC0024CEA5070B2F1004F40EB8300D5
:100A900008BF20F00100704711F0804F21D113F101
:100AA0003872BCBF01F00040704741F480114FEA3A
:100AB0005252C2F11802C2F1200C10FA0CF320FAC3
:100AC00002F018BF40F001004FEAC1234FEAD323E0
:100AD00003FA0CFC40EA0C0023FA02F34FEA43034A
:100AE000CCE77FEA625307D150EA01331EBF4FF0D3
:100AF000FE4040F44000704701F0004040F0FE40EE
:100B000040F40000704700BF80F0004002E000BFEA
:100B100081F0004142001FBF5FEA410392EA030FE8
:100B20007FEA226C7FEA236C6AD04FEA1262D2EB32
:100B30001363C1BFD218414048404140B8BF5B4237
:100B4000192B88BF704710F0004F40F4000020F0D0
:100B50007F4018BF404211F0004F41F4000121F0E6
:100B60007F4118BF494292EA030F3FD0A2F1010230
:100B700041FA03FC10EB0C00C3F1200301FA03F16E
:100B800000F0004302D5494260EB4000B0F5000F91
:100B900013D3B0F1807F06D340084FEA310102F150
:100BA0000102FE2A51D2B1F1004F40EBC25008BF02
:100BB00020F0010040EA03007047490040EB0000CC
:100BC00010F4000FA2F10102EDD1B0FA80FCACF1FB
:100BD000080CB2EB0C0200FA0CF0AABF00EBC250FA
:100BE00052421843BCBFD0401843704792F0000FE8
:100BF00081F4000106BF80F400000132013BB5E73B
:100C00004FEA41037FEA226C18BF7FEA236C21D0B0
:100C100092EA030F04D092F0000F08BF0846704715
:100C200090EA010F1CBF0020704712F07F4F04D1E3
:100C3000400028BF40F00040704712F100723CBFF6
:100C400000F50000704700F0004343F0FE4040F420
:100C5000000070477FEA226216BF08467FEA2363DE
:100C60000146420206BF5FEA412390EA010F40F4C9
:100C7000800070474FF0000304E000BF10F0004315
:100C800048BF40425FEA000C08BF704743F09643FC
:100C900001464FF000001CE050EA010208BF704717
:100CA0004FF000030AE000BF50EA010208BF70479E
:100CB00011F0004302D5404261EB41015FEA010CB3
:100CC00002BF84460146002043F0B64308BFA3F1AB
:100CD0008053A3F50003BCFA8CF2083AA3EBC2538D
:100CE00010DB01FA02FC634400FA02FCC2F12002AC
:100CF000BCF1004F20FA02F243EB020008BF20F0E3
:100D00000100704702F1200201FA02FCC2F1200248
:100D100050EA4C0021FA02F243EB020008BF20EA3D
:100D2000DC7070474FF0FF0C1CEAD0521EBF1CEA6B
:100D3000D15392EA0C0F93EA0C0F6FD01A4480EA59
:100D4000010C400218BF5FEA41211ED04FF0006342
:100D500043EA501043EA5111A0FB01310CF000406E
:100D6000B1F5000F3EBF490041EAD3715B0040EA94
:100D7000010062F17F02FD2A1DD8B3F1004F40EB64
:100D8000C25008BF20F00100704790F0000F0CF037
:100D9000004C08BF49024CEA502040EA51207F3AFB
:100DA000C2BFD2F1FF0340EAC250704740F40000D6
:100DB0004FF00003013A5DDC12F1190FDCBF00F0C7
:100DC00000407047C2F10002410021FA02F1C2F175
:100DD000200200FA02FC5FEA310040F1000053EA11
:100DE0004C0308BF20EADC70704792F0000F00F05F
:100DF000004C02BF400010F4000F013AF9D040EA65
:100E00000C0093F0000F01F0004C02BF490011F4F8
:100E1000000F013BF9D041EA0C018FE70CEAD153F6
:100E200092EA0C0F18BF93EA0C0F0AD030F0004C76
:100E300018BF31F0004CD8D180EA010000F000402A
:100E4000704790F0000F17BF90F0004F084691F0E8
:100E5000000F91F0004F14D092EA0C0F01D1420222
:100E60000FD193EA0C0F03D14B0218BF084608D1EB
:100E700080EA010000F0004040F0FE4040F4000035
:100E8000704740F0FE4040F4400070474FF0FF0CC8
:100E90001CEAD0521EBF1CEAD15392EA0C0F93EA0F
:100EA0000C0F69D0A2EB030280EA010C49024FEA61
:100EB000402037D04FF0805343EA111143EA10131A
:100EC0000CF000408B4238BF5B0042F17D024FF4D2
:100ED000000C8B4224BF5B1A40EA0C00B3EB510FAD
:100EE00024BFA3EB510340EA5C00B3EB910F24BF96
:100EF000A3EB910340EA9C00B3EBD10F24BFA3EB1B
:100F0000D10340EADC001B0118BF5FEA1C1CE0D1E2
:100F1000FD2A3FF650AF8B4240EBC25008BF20F095
:100F2000010070470CF0004C4CEA50207F32C2BFE9
:100F3000D2F1FF0340EAC250704740F400004FF086
:100F40000003013A37E792F0000F00F0004C02BFB7
:100F5000400010F4000F013AF9D040EA0C0093F081
:100F6000000F01F0004C02BF490011F4000F013BDB
:100F7000F9D041EA0C0195E70CEAD15392EA0C0F43
:100F800008D142027FF47DAF93EA0C0F7FF470AF7B
:100F9000084676E793EA0C0F04D14B023FF44CAFBE
:100FA00008466EE730F0004C18BF31F0004CCAD153
:100FB00030F000427FF45CAF31F000437FF43CAF8F
:100FC0005FE700BF4FEA4002B2F1FE4F0FD34FF090
:100FD0009E03B3EB12620DD94FEA002343F00043A6
:100FE00010F0004F23FA02F018BF404270474FF054
:100FF0000000704712F1610F01D1420205D110F0DB
:10100000004008BF6FF0004070474FF0000070478D
:1010100042000ED2B2F1FE4F0BD34FF09E03B3EB62
:10102000126209D44FEA002343F0004323FA02F08E
:1010300070474FF00000704712F1610F01D142027A
:1010400002D14FF0FF3070474FF00000704700BFF3
:10105000034613F8012B002AFBD1181A01387047F8
:1010600010B504460E4B18784FF47A73B3FBF0F3C7
:101070000C4A1068B0FBF3F000F0CEFF68B90F2CFB
:1010800001D901200AE0002221464FF0FF3000F094
:1010900083FF034B5C60002000E0012010BD00BF17
:1010A000000000201802002008B5074A136843F02A
:1010B00010031360032000F05DFF0020FFF7D0FF56
:1010C00004F08AFB002008BD00200240034A11689A
:1010D000034B1B780B441360704700BF04030020D0
:1010E00000000020014B1868704700BF0403002077
:1010F00038B50446FFF7F6FF0546B4F1FF3F02D0CE
:10110000044B1B781C44FFF7EDFF401BA042FAD3B1
:1011100038BD00BF0000002008B5436A9A6A12F08B
:10112000500F03D01B6A1B6B984708BD9A6A42F4A4
:1011300000729A621A68926802F46022B2F5602F17
:1011400003D0184603F006FFEFE7DA68002AF8D16B
:101150009A6A22F480729A629A6A12F4805FF0D1DD
:101160009A6A42F001029A62EBE7704708B5406A5A
:10117000FFF7FBFF08BD704710B5044603685A68C7
:1011800012F0200F18D01A6812F0020F14D0826AE1
:1011900012F0100F03D1826A42F4007282629A68E0
:1011A00002F46022B2F5602F38D0204603F0D2FE60
:1011B00023686FF012021A6023685A6812F0800FD9
:1011C00022D01A6812F0040F1ED0A26A12F0100F7B
:1011D00003D1A26A42F40052A2629A6802F4E04289
:1011E000B2F5E04F31D05A6812F4806F05D19A6899
:1011F00002F46022B2F5602F24D0204600F072FA8B
:1012000023686FF00C021A6023685A6812F0400FCE
:1012100003D01B6813F0010F28D110BDE268002A2B
:10122000C3D15A6822F020025A60A36A23F4807363
:10123000A362A36A13F4805FB7D1A36A43F00103EA
:10124000A362B2E7E268002AD7D15A6822F080028E
:101250005A60A36A23F48053A362A36A13F4807FC5
:10126000CBD1A36A43F00103A362C6E7A36A43F4A8
:101270008033A3622046FFF77EFF23686FF00102F0
:101280001A60CAE7704708B5406A836A43F04003B2
:101290008362C36A43F00403C362FFF7F3FF08BD30
:1012A00030B482B00023019390F82430012B00F079
:1012B0008B800246012380F824304B68062B29D806
:1012C0000568686B03EB8303053B1F249C4020EA01
:1012D00004000C6804FA03F303436B630B68092BE7
:1012E00038D91568E86803EB43031E3B07249C408C
:1012F00020EA04008C6804FA03F30343EB600B68F4
:10130000103B012B34D90020002382F8243002B096
:1013100030BC70470C2B0ED80568286B03EB830399
:10132000233B1F249C4020EA04000C6804FA03F3CA
:1013300003432B63D2E70568E86A03EB8303413B71
:101340001F249C4020EA04000C6804FA03F30343C2
:10135000EB62C3E71568286903EB430307249C404D
:1013600020EA04008C6804FA03F303432B61C6E708
:1013700013681648834205D0936A43F020039362B2
:101380000120C1E7986810F4000F1BD1986840F461
:10139000000098600B68102B01D00020B4E70C4BC4
:1013A0001B680C49A1FB03139B0C03EB830359003F
:1013B000019102E0019B013B0193019B002BF9D1BC
:1013C0000020A1E700209FE70220A0E700240140C1
:1013D0001802002083DE1B4330B583B00023019345
:1013E00003689A6812F0010F2ED19A6842F0010248
:1013F0009A60174B1B68174AA2FB03239B0C0193AF
:1014000002E0019B013B0193019B002BF9D10446B3
:10141000FFF768FE054623689B6813F0010F11D1A2
:10142000FFF760FE401B0228F5D9A36A43F01003C2
:10143000A362E36A43F00103E362002384F82430EB
:10144000012002E0002000E0002003B030BD00BF1A
:101450001802002083DE1B43F8B50468454DAC42FA
:101460005BD0454B9C4258D090F82440012C7ED054
:1014700016460D460446012380F82430FFF7ACFFE2
:10148000074600286ED1A36A23F4706323F001039A
:1014900043F48073A3622268374B9A4244D0A36A14
:1014A00023F48013A362536813F4806F05D0A36AFA
:1014B00023F4405343F48053A362A36A13F4805F80
:1014C00048D0E36A23F00603E362002384F8243063
:1014D000236A2A4A9A62236A294ADA62236A294AD3
:1014E0001A6323686FF002021A602268936843F45B
:1014F00080739360216833462A464C31206A00F09D
:1015000009FE2268936803F46023B3F5602F24D0AA
:10151000936843F48013936027E0164B5B6813F4E1
:10152000702FA1D0012720E0A3F580635B6813F43E
:10153000702FB4D0A36A43F48013A3620D4B5B6891
:1015400013F4806FB9D0A36A23F4405343F480535B
:10155000A362B2E70023E362B7E7936843F4A00312
:10156000936002E0002384F824303846F8BD022757
:10157000FBE700BF002401400028014019110008CA
:101580006D1100088712000838B503689A6812F0D8
:10159000010F01D1002038BD04469A6822F00102F3
:1015A0009A60FFF79FFD054623689B6813F0010FC3
:1015B0000ED0FFF797FD401B0228F5D9A36A43F030
:1015C0001003A362E36A43F00103E3620120E2E750
:1015D0000020E0E700287FD038B50446836A002B5E
:1015E00033D02046FFF7D0FFA36A13F010036DD16C
:1015F00000286BD1A26A22F4885222F0020242F043
:101600000202A2626268E1690A43E56842EA4502B1
:10161000A168B1F5807F21D001291CD06169012921
:101620001FD02568696821F469410B436B6021680C
:101630008D682A4B2B4013438B60A368B3F5807FE2
:1016400020D0012B1ED000211FE0C36280F824307F
:1016500003F0C2F8C5E74FF48073DFE74FF48073FF
:10166000DCE735B9A169013943EA413343F400634A
:10167000D7E7A16A41F02001A162E16A41F00101CE
:10168000E162CEE72369013B19052568EB6A23F483
:1016900070030B43EB6223689968114B0B409A422D
:1016A0000BD0A36A23F0120343F01003A362E36A92
:1016B00043F00103E36201200DE00023E362A36A2B
:1016C00023F0030343F00103A36204E0A36A43F0A1
:1016D0001003A362012038BD01207047FDF7E1FF30
:1016E000FE0E1FFF7047F0B44B6901229A40046858
:1016F000D4F8003223F47C534D6A43EA052343F0C7
:101700000103C4F800320568D5F81C42D3431C40DD
:10171000C5F81C42CC69C4B90568D5F80C421C4018
:10172000C5F80C42CF688D8806684C6945EA0745C4
:10173000483446F834508F680D8804684E6945EA8D
:101740000745483604EBC6046560CC69012C1ED001
:101750008C69002C35D10568D5F804421C40C5F8C9
:1017600004420C69002C33D10468D4F814522B4085
:10177000C4F814320B6A012B31D00268D2F800325F
:1017800023F00103C2F800320020F0BC7047056866
:10179000D5F80C421443C5F80C420F688D880668D2
:1017A0004C6945EA0745483446F834508F688D89BE
:1017B00004684E6945EA0745483604EBC60465608F
:1017C000C6E70568D5F804421443C5F80442C8E7E3
:1017D0000468D4F814321343C4F81432CAE7016819
:1017E000D1F81C321A43C1F81C22C6E7002800F0C9
:1017F000968038B5044690F83C3003B3022384F851
:101800003C302268136823F00203136022681368D7
:1018100043F001031360FFF765FC054623685A682F
:1018200012F0010F10D1FFF75DFC401B0A28F5D91B
:10183000032084F83C00002384F83D3038BD80F854
:101840003D3003F04DF8D9E75A6812F0010F5BD034
:10185000A269012A43D00022E169012941D022F086
:101860004002216A01293FD022F02002616A012949
:101870003DD022F01002A16A01293BD022F00802DB
:10188000E16A012939D022F00402196821F0FC0133
:101890000A431A60A368E26813432269134362692A
:1018A00013436268013A21681343CB6122681368CD
:1018B00023F001031360FFF715FC054623685A68FF
:1018C00012F0010F1CD0FFF70DFC401B0A28F5D9C0
:1018D000032084F83C00002384F83D30AEE78022EA
:1018E000BAE742F04002BCE742F02002BEE742F015
:1018F0001002C0E742F00802C2E742F00402C4E767
:101900005B6813F0010F04D0042384F83C300120FD
:1019100094E700202064012384F83C308EE7012006
:1019200070470268936813F0806F08D1936813F0D2
:10193000006F04D1936813F0805F00F09A8090F8F4
:101940003D30012B00F09A80F0B4012380F83D3047
:10195000936813F0806F05D1936813F0006F59D02E
:10196000012300E0002303F118010901545804F099
:1019700001045450016B8A68002A4DD1056803F1B7
:1019800018021201AC580E68C96841EA4651214359
:10199000A950016B0A6902F00F020A61046803F1A1
:1019A000180211016218546824F00F045460026890
:1019B0000A445168046B246921435160016BCC7D5A
:1019C0008A7D120442EA04624C7D42EA0422097DC7
:1019D00004680A431D012C44C4F88821016BCC7EA5
:1019E0008A7E120442EA04624C7E42EA04220C7EA1
:1019F000016822432944C1F88C2190F83C20D2B2DE
:101A0000322A2ED0622A30D0222A12D0122280F816
:101A10003C2011E00223A6E7066803F11804240124
:101A200035594F6842EAC702C9680A432A4332510E
:101A3000AFE7422280F83C200022026480F83D207B
:101A4000046818331B01E15841F00101E1500168BD
:101A50004B6943F40F4343F001034B611046F0BC64
:101A60007047522280F83C20E6E7722280F83C2042
:101A7000E2E7042380F83C300120704702207047E1
:101A80000A4699B990F83C30DBB2222B7CD090F812
:101A90003C30DBB2422B79D090F83C30DBB2622B89
:101AA00076D090F83C30DBB2722B73D0012A16D07E
:101AB00090F83D30012B75D010B4012380F83D30F3
:101AC000002A41D190F83C30DBB2322B34D0522B7B
:101AD00036D0122B19D0222380F83C3018E090F831
:101AE0003C30DBB2322B57D090F83C30DBB2522B7B
:101AF00054D090F83C30DBB2622B51D090F83C309F
:101B0000DBB2722BD4D102207047422380F83C30E4
:101B1000002101640468636943F40F4343F0010347
:101B2000636180F83D1042B30268536943F050038B
:101B30005361002010BC7047622380F83C30E7E717
:101B4000722380F83C30E3E790F83C30DBB2222B84
:101B50000BD0422B0DD0122B03D0322380F83C3017
:101B6000D6E7522380F83C30D2E7622380F83C303D
:101B7000CEE7722380F83C30CAE70268536943F02D
:101B80000A0353610846D5E70220704702207047D8
:101B900002207047022070470220704702207047E1
:101BA0000220704702207047704708B502685369E9
:101BB00023F00103536190F83C30DBB2122B0CD0C0
:101BC00090F83C30DBB2522B14D0722B16D0422B43
:101BD00009D0012380F83C3008E00268536923F4FF
:101BE0000F435361ECE7222380F83C30FFF7DCFF22
:101BF000002008BD322380F83C30F7E7622380F8EC
:101C00003C30F3E7704710B50C46002978D1436BA0
:101C1000016804F11B0212018A5802F004029A6062
:101C2000002A6FD1016804F11B0212018A58520D7B
:101C30001A60016804F11B021201895801F00201C7
:101C4000D96001681144496801F00F0119611C62F3
:101C500001680A445268C2F30722DA61016822016E
:101C60001144D1F8B811197501681144D1F8B811AF
:101C7000090A597501681144D1F8B811090C997510
:101C800001681144D1F8B811090ED97501681144E1
:101C9000D1F8BC11197601681144D1F8BC11090AB8
:101CA000597601681144D1F8BC11090C9976016884
:101CB0000A44D2F8BC21120EDA765CBB03682022FB
:101CC000DA600268536923F00A03536190F83C30EC
:101CD000DBB2222B01D0322B04D10268536923F4EA
:101CE0000F43536174BB90F83C30DBB2622B21D0C0
:101CF000722B23D0422B16D0012380F83C3015E004
:101D0000836B85E7016804F11B0212018A58D2082F
:101D10005A608EE7036820221A610268536923F033
:101D200050035361D2E7122380F83C30FFF76AFF7B
:101D3000002010BD322380F83C30F7E7522380F8B2
:101D40003C30F3E790F83C30DBB2622B0BD0722BC7
:101D50000DD0522B03D0012380F83C30E6E712234C
:101D600080F83C30E2E7222380F83C30DEE7422373
:101D700080F83C30DAE7000070B504460268D168AC
:101D8000536911F0100F09D003F00803002B00F085
:101D9000A6801023D3604FF4007500E00025226870
:101DA0001169536903F0400311F0100F04D01BB107
:101DB00045F480651023136123685A6912F0010FFE
:101DC00028D09E689968674A0A40996821F06F4157
:101DD00021F47E01090C09046348B04305D0614831
:101DE000824202D0614A914214D199689A6802F401
:101DF00000729B6803F0010311F0020F02D10AB9CF
:101E0000002B6ED02046FFF7D0FE22689168584B19
:101E10000B4393602368DA685B6903F0020312F0F6
:101E2000030F01D0002B5FD123681A695B6903F0AF
:101E3000100312F0030F01D0002B5AD1236C2B4357
:101E40002364236898695A6902F48072596901F41D
:101E5000004110F0010F05D022B119B1226C42F0FF
:101E60000102226498695A6902F40072596901F406
:101E7000004110F0020F05D022B119B1226C42F0DE
:101E80000202226498695A6902F48062596901F475
:101E9000004110F0040F05D022B119B1226C42F0BC
:101EA0000402226498695A6902F40062596901F4D3
:101EB000004110F0700F32D08AB381B39A6902F0FA
:101EC0007002302A2ED019D9502A30D0602A33D04F
:101ED000402A20D1226C42F0400222641BE00025FF
:101EE0005DE745F4006590E700212046FFF78BFE93
:101EF0009AE701212046FFF786FE9FE7102A06D0C9
:101F0000202A08D1226C42F01002226403E0226CE5
:101F100042F0080222649A6922F070029A61236CEE
:101F20007BB970BD226C42F020022264F3E7226C80
:101F300042F080022264EEE7226C42F48072226456
:101F4000E9E7236804225A60012384F83C302268C0
:101F5000536923F40F4323F05B035361204602F0DF
:101F600061FDDEE70001000801000004000001102F
:101F700009050100074AD36823F4E0631B041B0C26
:101F8000000200F4E060184340F0BF6040F400300D
:101F9000D060704700ED00E030B4174BDB68C3F34E
:101FA0000223C3F10704042C28BF04241D1D062DA1
:101FB00018D9033B4FF0FF3505FA04F421EA040178
:101FC000994005FA03F322EA0303194300280BDBC7
:101FD0000901C9B200F1604000F5614080F80013CA
:101FE00030BC70470023E5E700F00F000901C9B2DB
:101FF000024B1954F4E700BF00ED00E014ED00E0DF
:1020000000F01F02400901239340024A42F82030A9
:10201000704700BF00E100E00138B0F1807F0AD2D4
:10202000064B5860064AF02182F823100020986081
:1020300007221A6070470120704700BF10E000E0DF
:1020400000ED00E0042805D0054A136823F00403DE
:1020500013607047024A136843F00403136070472B
:1020600010E000E0704708B5FFF7FCFF08BD70B452
:10207000066CC56B0124B4406C60046863604368FF
:10208000102B05D0036899600368DA6070BC704754
:1020900003689A600368D960F8E70000002830D030
:1020A00010B403460168184A0A441848A0FB02020B
:1020B000120992001A64164ADA63022283F8212078
:1020C000086820F47F5020F030005A689C68224352
:1020D000DC6822431C6922435C6922439C692243D9
:1020E000DC69224302430A6000209862D8621863C8
:1020F00058639863012283F8212083F8200010BCE4
:1021000070470120704700BFF8FFFDBFCDCCCCCC9D
:102110000000024038B590F82040012C32D0012454
:1021200080F8204090F82140012C04D0002380F852
:102130002030022038BD0446022084F8210000200F
:10214000A0632568286820F0010028602046FFF77A
:102150008EFFE36A5BB12268136843F00E031360DD
:102160002268136843F0010313600020E2E722684D
:10217000136823F0040313602268136843F00A0312
:102180001360EDE70220D5E738B5C36B1A68046821
:102190002568016C04238B40134235D015F0040FE1
:1021A00032D0236813F0200F03D1236823F00403F7
:1021B00023600368434A934214D01432934218D0E8
:1021C0001432934217D01432934217D014329342F0
:1021D00017D01432934202D04FF0806203E04FF4E4
:1021E000800200E00422384B5A60C36A03B198476A
:1021F00038BD4022F7E74FF48062F4E74FF48042A5
:10220000F1E74FF48022EEE702238B4013423CD0EB
:1022100015F0020F39D0236813F0200F06D1236880
:1022200023F00A032360012380F821300368254A44
:10223000934214D0143293421CD0143293421BD0D8
:10224000143293421BD0143293421BD01432934267
:1022500002D04FF0007203E04FF4001200E00222BF
:10226000194B5A60002380F82030836A002BBFD0BE
:102270009847BDE72022F3E74FF40072F0E74FF4F0
:102280000052EDE74FF40032EAE7082303FA01F1C8
:102290001142ADD015F0080FAAD0236823F00E0329
:1022A0002360026CC16B012303FA02F24A6083636C
:1022B00080F82130002380F82030036B002B97D06A
:1022C000984795E708000240000002401A4BDB687F
:1022D00013F0100F27D0194AD36943F00203D361DA
:1022E0001023154AD26812F0040F06D01349CA69A8
:1022F00042F00102CA6143F004030F4AD26912F0AE
:10230000010F09D00D49CA6942F00402CA610A49A5
:10231000CA6922F00102CA6140F20112934204D05C
:10232000054AD36070470023DBE7034AD36923F0F3
:102330000103D361704700BF002002400803002062
:102340000A4B1B6913F0800F0DD0084B084A5A60E6
:1023500002F188325A601B6913F0800F01D001200E
:102360007047002070470020704700BF00200240E7
:102370002301674538B50446FEF7B4FE0546174B02
:10238000DB6813F0010F0AD0B4F1FF3FF7D00CB3B4
:10239000FEF7A8FE401BA042F1D9032019E00F4B25
:1023A000DB6813F0200F02D00C4B2022DA600B4BBD
:1023B000DB6813F0100F09D1084BDB6913F0010F34
:1023C00004D1064BDB6813F0040F05D0FFF77EFF46
:1023D000012038BD0320FCE70020FAE7002002407E
:1023E000F0B482B000263546A1E0002C59D0012C73
:1023F00000D1CE68FF2B68D88446FF2B68D8AC008C
:10240000DCF800200F27A74022EA070206FA04F4AE
:102410002243CCF800204A6812F0805F00F08680EA
:102420005E4A946944F001049461926902F00102E9
:102430000192019AAC08A71C594A52F8272005F0CE
:102440000307BF004FF00F0C0CFA07FC22EA0C0C3C
:10245000544A904242D002F5806290427FD002F509
:10246000806290427DD002F58062904234D0042296
:1024700035E04D4FBC4214D00BD94C4FBC4210D06C
:1024800007F58037BC420CD0A7F58017BC42B1D10C
:1024900007E0A7F58017BC4203D007F58037BC42A0
:1024A000A8D18C687CB1012C08D042610826A1E734
:1024B000CE6808369EE7CE680C369BE70261082698
:1024C00098E7002696E7042694E700F1040C94E7C9
:1024D000A5F10804A40093E7032200E00022BA401B
:1024E00042EA0C0202342E4F47F824204A6812F4C4
:1024F000803F38D02E4C22681A4322604A6812F47A
:10250000003F36D02A4C62681A4362604A6812F46F
:10251000801F34D0264CA2681A43A2604A6812F485
:10252000001F32D0224CE2681343E36001350F2DC7
:1025300031D80122AA400B6813409A42F6D14C6868
:10254000122CB8D095D8022CB2D07FF64EAF032C07
:10255000B7D0112C7FF44EAFCE6804364AE7012283
:10256000BDE70222BBE7124C226822EA0302226086
:10257000C4E70F4C626822EA03026260C6E70C4CB3
:10258000A26822EA0302A260C8E7094CE26822EAD4
:102590000303E360CAE702B0F0BC704700100240DA
:1025A000000001400008014000002110000031102F
:1025B000000401408368194201D1002070470120C6
:1025C000704712B909040161704701617047704793
:1025D00008B5054B5B69034200D108BD024B586149
:1025E000FFF7F5FFF9E700BF0004014082B0084B98
:1025F0001B68084AA2FB03235B0A00FB03F001905F
:1026000000BF019B5A1E0192002BF9D102B0704706
:1026100018020020D34D621070B582B004460368E2
:1026200013F0010F2CD0AB4B5B6803F00C03042BB1
:102630001DD0A84B5B6803F00C03082B12D0636815
:10264000B3F5803F41D0002B55D103F1804303F512
:1026500004331A6822F480321A601A6822F4802245
:102660001A6037E09B4B5B6813F4803FE7D0994BCF
:102670001B6813F4003F03D06368002B00F0AE81A9
:10268000236813F0020F76D0924B5B6813F00C0FA7
:102690005FD0904B5B6803F00C03082B54D0236988
:1026A000002B00F08A808C4B01221A60FEF71AFD85
:1026B0000546884B1B6813F0020F75D1FEF712FD1B
:1026C000401B0228F5D903208BE1824A136843F4AA
:1026D00080331360636843B3FEF704FD05467D4B0A
:1026E0001B6813F4003FCBD1FEF7FCFC401B6428B1
:1026F000F5D9032075E1B3F5A02F09D0754B1A6801
:1027000022F480321A601A6822F480221A60E1E70B
:1027100003F18043A3F53C331A6842F480221A6027
:102720001A6842F480321A60D4E7FEF7DBFC0546F3
:10273000684B1B6813F4003FA2D0FEF7D3FC401B8C
:102740006428F5D903204CE1624B5B6813F4803FA9
:10275000A5D1604B1B6813F0020F04D02369012B35
:1027600001D001203DE15B4A136823F0F803616961
:1027700043EAC1031360236813F0080F32D0A36942
:10278000002B5BD0554B01221A60FEF7ABFC0546CF
:10279000504B5B6A13F0020F21D1FEF7A3FC401BE4
:1027A0000228F5D903201CE14A4A136823F0F803F4
:1027B000616943EAC1031360DDE7474B00221A60F9
:1027C000FEF790FC0546434B1B6813F0020FD2D076
:1027D000FEF788FC401B0228F5D9032001E1012007
:1027E000FFF704FF236813F0040F00F09780394BC4
:1027F000DB6913F0805F33D1364BDA6942F08052E7
:10280000DA61DB6903F080530193019B0125344BAE
:102810001B6813F4807F25D0E368012B36D0002B92
:102820004CD103F1804303F504331A6A22F001020C
:102830001A621A6A22F004021A622CE0274B002264
:102840001A60FEF74FFC0546224B5B6A13F0020F3D
:10285000C8D0FEF747FC401B0228F5D90320C0E092
:102860000025D4E71E4A136843F480731360FEF713
:1028700039FC06461A4B1B6813F4807FCCD1FEF757
:1028800031FC801B6428F5D90320AAE0114A136AA1
:1028900043F001031362E36873B3FEF723FC0646BB
:1028A0000C4B1B6A13F0020F37D1FEF71BFC801B89
:1028B00041F288339842F3D9032092E0052B11D0DE
:1028C000044B1A6A22F001021A621A6A22F0040208
:1028D0001A62E0E7001002400000424280044242D7
:1028E00000700040414B1A6A42F004021A621A6AF0
:1028F00042F001021A62CEE7FEF7F4FB06463B4BBC
:102900001B6A13F0020F08D0FEF7ECFB801B41F2AC
:1029100088339842F3D9032063E0E5B9E369002BDB
:102920005ED0324A526802F00C02082A5BD0022BB9
:1029300017D02F4B00221A60FEF7D4FB04462B4B16
:102940001B6813F0007F47D0FEF7CCFB001B02286A
:10295000F5D9032045E0254AD36923F08053D3619C
:10296000DCE7234B00221A60FEF7BCFB05461F4B39
:102970001B6813F0007F06D0FEF7B4FB401B022853
:10298000F5D903202DE0236AB3F5803F1AD017490B
:102990004B6823F47413226A606A024313434B604A
:1029A000134B01221A60FEF79DFB04460F4B1B6878
:1029B00013F0007F0ED1FEF795FB001B0228F5D91E
:1029C00003200EE0094A536823F40033A1680B4347
:1029D0005360DCE7002004E0002002E0012000E07A
:1029E000002002B070BD0120FBE700BF00100240D4
:1029F0006000424210B487B0164C94E80F000DF10D
:102A0000180C0CE90F00238AADF80430124B5B68F8
:102A100003F00C02082A1AD1C3F38342624412F86D
:102A2000102C13F4803F05D10C4800FB02F007B0D6
:102A300010BC7047084B5B68C3F34043634413F812
:102A4000143C074800FB02F0B0FBF3F0EFE704484A
:102A5000EDE700BFFC6A00080010024000093D00DD
:102A600000127A00594B1B6803F007038B420CD20B
:102A7000564A136823F007030B431360136803F0EF
:102A800007038B4201D00120704770B5036813F033
:102A9000020F06D04E4A536823F0F00384682343A4
:102AA00053600C460546036813F0010F52D043688B
:102AB000012B23D0022B28D0454A126812F0020FB6
:102AC00000F0828042494A6822F0030213434B60BF
:102AD000FEF708FB06466B68012B1DD0022B2AD09F
:102AE0003B4B5B6813F00C0F34D0FEF7FBFA801BF6
:102AF00041F288339842F3D9032064E0344A1268E3
:102B000012F4003FDED101205DE0314A126812F07C
:102B1000007FD7D1012056E02D4B5B6803F00C03FA
:102B2000042B17D0FEF7DEFA801B41F2883398425F
:102B3000F2D9032047E0264B5B6803F00C03082B17
:102B400008D0FEF7CFFA801B41F288339842F2D9C1
:102B5000032038E01D4B1B6803F00703A3420CD988
:102B60001A4A136823F0070323431360136803F022
:102B70000703A34201D0012025E02B6813F0040FC6
:102B800006D0134A536823F4E063E9680B435360AB
:102B90002B6813F0080F07D00D4A536823F46053D5
:102BA000296943EAC1035360FFF724FF084B5B68C0
:102BB000C3F30313074AD35CD840074B18600020C7
:102BC000FEF74EFA002070BD0120FCE70020024015
:102BD00000100240806B000818020020014B1868AA
:102BE000704700BF1802002008B5FFF7F7FF044B3D
:102BF0005B68C3F30223034AD35CD84008BD00BF1F
:102C000000100240906B000808B5FFF7E7FF044B87
:102C10005B68C3F3C223034AD35CD84008BD00BF3E
:102C200000100240906B000870B582B00446036843
:102C300013F0010F34D03E4BDB6913F0805F48D1B5
:102C40003B4BDA6942F08052DA61DB6903F0805372
:102C50000193019B0125374B1B6813F4807F3AD009
:102C6000334B1B6A13F4407311D0626802F4407254
:102C70009A420CD02E4A136A23F440702E49012642
:102C80000E6000260E60106213F0010F37D1284A43
:102C9000136A23F4407361680B431362002D3FD124
:102CA000236813F0020F06D0214A536823F44043EF
:102CB000A1680B435360236813F0100F35D01C4AF2
:102CC000536823F48003E1680B435360002002B093
:102CD00070BD0025BFE7174A136843F48073136083
:102CE000FEF700FA0646134B1B6813F4807FB7D13A
:102CF000FEF7F8F9801B6428F5D90320E7E7FEF713
:102D0000F1F906460A4B1B6A13F0020FBFD1FEF71A
:102D1000E9F9801B41F288339842F3D90320D6E7C2
:102D2000D36923F08053D361BAE70020CFE700BF17
:102D3000001002400070004040044242F8B50546D1
:102D40000F4616461C463BE02CB1FEF7CBF9069B1E
:102D5000C01AA04234D32A68536823F0E0035360BA
:102D60006B68B3F5827F0BD0AB6AB3F5005F14D00C
:102D7000012385F85130002385F85030032027E0E7
:102D8000AB68B3F5004F02D0B3F5806FECD12A6881
:102D9000136823F040031360E6E72A68136823F4FE
:102DA00000531B041B0C13602A68136843F4005380
:102DB0001360DDE70123B34209D0B4F1FF3FC3D173
:102DC0002B689B6837EA0303F4D00023F3E7002065
:102DD000F8BD10B582B0044600920B460022802157
:102DE000FFF7ACFF034610B9184602B010BD636D83
:102DF00043F0200363650323F6E72DE9F04385B034
:102E000099460C9D90F85030012B00F0108104463B
:102E10000F461646012380F85030FEF763F98046CE
:102E200094F85130DBB26268012B15D0B2F5827F85
:102E30000AD00223012284F85120002284F8502075
:102E4000184605B0BDE8F083A268002A40F0E7808C
:102E5000042B01D00223EDE7002F00F0E280002ECA
:102E600000F0E180B9F1000F00F0DF8094F85130FC
:102E7000DBB2012B2BD000236365A663A4F83E9040
:102E8000A4F83C902763A4F83690A4F83490236407
:102E9000636423681A6812F0400F03D11A6842F085
:102EA00040021A60E368B3F5006F14D063681BB189
:102EB000E38E9BB2012B07D1236817F8012B1A73FD
:102EC000E38E013B9BB2E3864FF0010961E00523ED
:102ED00084F85130CFE763681BB1E38E9BB2012BBE
:102EE00007D1236837F8022BDA60E38E013B9BB2EF
:102EF000E3864FF0010913E0E38F9BB26BB12368C7
:102F00009A6812F0010F08D0DB6826F8023BE38FC5
:102F1000013B9BB2E3874FF00109B5F1FF3F1CD1A4
:102F2000E38E9BB21BB9E38F9BB2002B55D0B9F156
:102F3000000FE1D0E38E9BB2002BDDD023689A68AE
:102F400012F0020FD8D037F8022BDA60E38E013B83
:102F50009BB2E3864FF00009CEE7FEF7C3F8A0EB83
:102F60000800A842DCD3032364E7E38F9BB26BB174
:102F700023689A6812F0010F08D0DB683370E38F82
:102F8000013B9BB2E38701364FF00109B5F1FF3FEA
:102F90001BD1E38E9BB213B9E38F9BB2EBB1B9F1B6
:102FA000000FE2D0E38E9BB2002BDED023689A683C
:102FB00012F0020FD9D03A781A73E38E013B9BB21C
:102FC000E38601374FF00009CFE7FEF78BF8A0EB5F
:102FD0000800A842DDD303232CE7CDF800802B4660
:102FE000012202212046FFF7A9FE08B1032321E7B1
:102FF000424629462046FFF7ECFE034618B120233F
:103000006365012316E7A268002A7FF413AF0392D9
:103010002268D168039192680392039A0AE7022317
:1030200008E7012306E7012304E7012302E702235F
:1030300006E700283CD010B504460023836290F8D0
:103040005130002B31D0022384F8513022681368AC
:1030500023F0400313606368A2681343E2681343DC
:103060002269134362691343A26902F40072134395
:10307000E2691343226A1343A16A22680B43136077
:10308000638B03F00403616A22680B435360236877
:10309000E26A1A612268D36923F40063D3610020D5
:1030A0006065012384F8513010BD02F069FBCAE766
:1030B0000120704710B4036A046A24F0010404621A
:1030C000846924F0F00444EA021223F00A030B435B
:1030D0008261036210BC704710B4036A23F01003CE
:1030E00003628469036A24F4704444EA023223F0E0
:1030F000A00343EA01138261036210BC7047836836
:1031000023F0700341F0070119438160704710B448
:10311000846824F47F4442EA03230B4323438360FF
:1031200010BC70470268D36843F00103D3600268A3
:10313000136843F0010313600020704790F83C309F
:10314000012B7DD010B50446012380F83C300223CA
:1031500080F83D300268936823F47F4323F07703BF
:1031600093600B68402B57D010D9702B3ED01FD8DE
:10317000502B47D0602B32D1CA6849680068FFF7EE
:10318000ABFF60212068FFF7BAFF28E0102B4DD07D
:1031900008D9202B4FD0302B21D130210068FFF7E8
:1031A000AEFF1CE0DBB900210068FFF7A8FF16E0C6
:1031B000B3F5805F0ED0B3F5005F10D1CB684A68DD
:1031C00089680068FFF7A3FF2268936843F480438F
:1031D000936004E00268936823F00703936001237F
:1031E00084F83D30002084F83C0010BDCB684A686C
:1031F00089680068FFF78BFF2268936843F07703C4
:103200009360ECE7CA6849680068FFF753FF5021F4
:103210002068FFF774FFE2E7CA6849680068FFF7B3
:1032200049FF40212068FFF76AFFD8E710210068B6
:10323000FFF765FFD3E720210068FFF760FFCEE7C7
:10324000022070477047704770477047704710B54D
:10325000044603681A6912F0020F11D0DA6812F0FE
:10326000020F0DD06FF002021A6101230377036889
:103270009B6913F0030F70D0FFF7E6FF002323775D
:1032800023681A6912F0040F12D0DA6812F0040FE2
:103290000ED06FF004021A610223237723689B6922
:1032A00013F4407F5FD02046FFF7CEFF0023237743
:1032B00023681A6912F0080F12D0DA6812F0080FAA
:1032C0000ED06FF008021A61042323772368DB69AC
:1032D00013F0030F4ED02046FFF7B6FF00232377ED
:1032E00023681A6912F0100F12D0DA6812F0100F6A
:1032F0000ED06FF010021A61082323772368DB6970
:1033000013F4407F3DD02046FFF79EFF0023237734
:1033100023681A6912F0010F03D0DA6812F0010F66
:1033200036D123681A6912F0800F03D0DA6812F0E0
:10333000800F34D123681A6912F0400F03D0DA6885
:1033400012F0400F32D123681A6912F0200F03D017
:10335000DA6812F0200F30D110BDFFF774FF20465D
:10336000FFF773FF8AE72046FFF76DFF2046FFF760
:103370006CFF9BE72046FFF766FF2046FFF765FFDF
:10338000ACE72046FFF75FFF2046FFF75EFFBDE793
:103390006FF001021A612046FFF754FFC1E76FF09A
:1033A00080021A61204600F08CF8C3E76FF04002FB
:1033B0001A612046FFF74AFFC5E76FF020021A6145
:1033C000204600F07DF8C7E703681B4A90420AD008
:1033D000B0F1804F07D0A2F59432904203D002F5AD
:1033E0008062904203D123F070034A681343124A6B
:1033F00090420AD0B0F1804F07D0A2F594329042AB
:1034000003D002F58062904203D123F44073CA686E
:10341000134323F080034A69134303608B68C3623C
:103420000B688362044B984202D0012343617047CA
:103430000B690363F9E700BF002C0140A8B110B588
:10344000044690F83D305BB1022384F83D30211DE5
:103450002068FFF7B9FF012384F83D30002010BD3C
:1034600080F83C3002F040FBEEE70120704790F816
:103470003C30012B22D030B4012280F83C200223C2
:1034800080F83D300468636823F07003636004686B
:1034900063680D682B4363600468A36823F08003AE
:1034A000A3600468A36849680B43A36080F83D20CB
:1034B000002380F83C30184630BC7047022070472B
:1034C000704770470268D36823F0C003D36020239D
:1034D00080F8393070470268D36823F49073D36062
:1034E0000268536923F001035361202380F83A30C6
:1034F000704700002DE9F84305460268136923F47C
:103500004053C1680B4313618368026913434269E6
:1035100013430168CA6822F4B05222F00C0213432C
:10352000CB600268536923F4407381690B43536194
:103530000268594B9A4257D0FFF756FB00EB8000C8
:1035400000EB80006C68A400B0FBF4F4534FA7FBC1
:10355000043464092601FFF747FB00EB800000EB11
:1035600080006C68A400B0FBF4F9FFF73DFB00EBB2
:10357000800000EB80006C68A400B0FBF4F4A7FBB3
:10358000043464094FF0640808FB149424013234B5
:10359000A7FB0434640904F0F0043444FFF724FB6F
:1035A00000EB800000EB80006E68B600B0FBF6F622
:1035B000FFF71AFB00EB800000EB80006B689B00BC
:1035C000B0FBF3F0A7FB0030400908FB10684FEA9E
:1035D000081808F13208A7FB0837C7F343172B6810
:1035E00027449F60BDE8F883FFF70EFB00EB8000E7
:1035F00000EB80006C68A400B0FBF4F4274FA7FB3D
:10360000043464092601FFF7FFFA00EB800000EBA9
:1036100080006C68A400B0FBF4F9FFF7F5FA00EB4A
:10362000800000EB80006C68A400B0FBF4F4A7FB02
:10363000043464094FF0640808FB14942401323404
:10364000A7FB0434640904F0F0043444FFF7DCFA07
:1036500000EB800000EB80006E68B600B0FBF6F671
:10366000FFF7D2FA00EB800000EB80006B689B0054
:10367000B0FBF3F0A7FB0030400908FB10684FEAED
:10368000081808F13208A7FB0837C7F343172B685F
:1036900027449F60A6E700BF003801401F85EB511B
:1036A0002DE9F04105460F4616469846069C2B68C4
:1036B0001B6837EA03030CBF01230023B3421DD16B
:1036C000B4F1FF3FF3D02CB1FDF70CFDA0EB0800E7
:1036D000A042ECD92A68D36823F4D073D3602A6857
:1036E000536923F001035361202385F8393085F8AD
:1036F0003A30002385F83830032000E00020BDE890
:10370000F08158B310B5044690F839300BB3242338
:1037100084F839302268D36823F40053D3602046FC
:10372000FFF7E8FE2268136923F4904313612268CF
:10373000536923F02A0353612268D36843F400538A
:10374000D3600020E063202384F8393084F83A30D5
:1037500010BD80F8383002F03BFAD8E701207047FE
:10376000002830D010B5044690F8393033B3242304
:1037700084F839302268D36823F40053D36020469C
:10378000FFF7B8FE2268136923F49043136122689F
:10379000536923F0220353612268536943F00803FD
:1037A00053612268D36843F40053D3600020E06380
:1037B000202384F8393084F83A3010BD80F838304E
:1037C00002F006FAD3E7012070472DE9F04182B0FC
:1037D0001E4690F83930DBB2202B55D104460D46F9
:1037E0009046002955D0002A55D090F83830012B4A
:1037F00053D0012380F838300023C363212380F89D
:103800003930FDF76FFC0746A4F82480A4F8268021
:1038100010E000963B46002280212046FFF740FF43
:1038200000283CD12B882268C3F308035360236926
:10383000C3B90235E38C9BB2B3B1E38C013B9BB2BD
:10384000E384A368B3F5805FE3D000963B46002293
:1038500080212046FFF724FF18BB2A7823685A608E
:103860000135E7E70135E5E700963B4600224021B8
:103870002046FFF715FF0346A8B9202284F8392017
:10388000002284F8382000E00223184602B0BDE888
:10389000F0810123F9E70123F7E70223F5E703238A
:1038A000F3E70323F1E70323EFE72DE9F04182B0CB
:1038B0001E4690F83A30DBB2202B5AD104460D4612
:1038C0009046002959D0002A59D090F83830012B61
:1038D00057D0012380F838300023C363222380F8B7
:1038E0003A30FDF7FFFB0746A4F82C80A4F82E80A1
:1038F0001DE000963B46002220212046FFF7D0FE27
:10390000002840D1236933B923685B68C3F30803F7
:1039100025F8023B0BE023685B68DBB225F8013B2E
:1039200005E023685B6803F07F032B700135E38DAE
:103930009BB2BBB1E38D013B9BB2E385A368B3F5BA
:10394000805FD6D000963B46002220212046FFF71C
:10395000A7FED0B92369002BE3D123685B682B70E5
:103960000135E4E7202384F83A30002084F8380059
:1039700000E0022002B0BDE8F0810120FAE701205A
:10398000F8E70220F6E70320F4E70320F2E700005F
:1039900030B583B090F83A40E4B2202C3DD10029F4
:1039A0003ED0002A3ED090F83830012B3CD0134650
:1039B0000A460446012180F838108262838500257A
:1039C000C563222180F83A10416B18488862616B08
:1039D0001748C862616B17480863616B4D632168C3
:1039E0000431606BFEF796FB019523681A6801921B
:1039F0005A680192019A84F83850DA6842F4807269
:103A0000DA602268536943F0010353612268536905
:103A100043F040035361284600E0022003B030BD6C
:103A20000120FBE70120F9E70220F7E73B3A000815
:103A30007B3A0008873A0008704708B5436A026875
:103A4000126812F0200F13D10022DA851968CA68B3
:103A500022F48072CA6019684A6922F001024A6140
:103A600019684A6922F040024A61202283F83A200C
:103A70001846FFF7E1FF08BD704708B5406AFFF739
:103A8000FBFF08BD704710B5446A23685A6994F873
:103A90003930DBB2212B10D023685A6902F0400282
:103AA00094F83A30DBB2222B11D0E36B43F01003D1
:103AB000E3632046FFF7E6FF10BD02F08002002A14
:103AC000EAD00023E3842046FFF7FCFCE4E7002A69
:103AD000EBD00023E3852046FFF7FDFCE5E738B592
:103AE000054600F03BFF00F05DFF00F075FF0C2184
:103AF000012002F08FFB044628621221012002F00F
:103B000089FB206000240BE04621012002F082FBAB
:103B1000A31C45F823000470286A00F0F3FC01346C
:103B2000052CF1DD00232B804CF250322A856B8569
:103B3000EB70286A00F0E6FC38BD0000F8B50446DA
:103B40000025C5844CF2503303854585026A1379FC
:103B500043F001031371036A1B684FF418721A8053
:103B6000036A1B6801269E70006A00F0E1FB0A20D0
:103B7000FDF7BEFA236A1B684FF48C621A80236A31
:103B80001B689E70206A00F0D3FB0A20FDF7B0FA94
:103B9000236A1B684FF48D621A80236A1B689E702B
:103BA000206A00F0C5FB0A20FDF7A2FA0BE0B31C67
:103BB00054F82330DB8EE28C1344E384E378012B4A
:103BC00020D00135EDB2052D23D82E46AF1C54F878
:103BD0002720216A072000F0B8FC6420FDF788FA4E
:103BE00054F82730B3F84230228D934200D2238517
:103BF000B31C54F82330B3F84030628D9342D6D9C9
:103C00006385D4E7023654F82610206A00F06BFD75
:103C1000D7E7E38C024AA2FB03235B08E384F8BDE9
:103C2000ABAAAAAA10B50446038D46F66052934289
:103C30005BD8604A138843F002031380638D48F613
:103C40009F4293425BD95B4A138843F00103138080
:103C5000584B1B8813F0020F5BD056498A7801320B
:103C60008A7013F0010F59D05249CA780132CA70D4
:103C700013F0080F57D04F4A1379013313714D4B8E
:103C800093F90230052B02DD4A4B05229A70494B0D
:103C900093F90330052B02DD464B0522DA70454BC4
:103CA00093F90430052B02DD424B05221A71414B7A
:103CB00093F90230002B3BDB3E4B93F90330002B92
:103CC0003ADB3C4B93F90430002B39DB394B93F949
:103CD0000230052B38D0002B3DD1374B00221A7013
:103CE000238823F00203238035E047F22F529342CA
:103CF000A4D9304A138823F0020313809EE748F2C8
:103D0000D0429342A4D82B4A138823F00103138096
:103D10009EE728498A78013A8A70A2E72549CA783D
:103D2000013ACA70A4E7234A1379013B1371A6E74D
:103D3000204B00229A70BFE71E4B0022DA70C0E7CA
:103D40001C4B00221A71C1E71B4B01221A702388F9
:103D500043F002032380174B93F90330052B08D05F
:103D60006BB9154B00225A70238823F0010323807E
:103D700005E0114B01225A70238813432380A28C43
:103D800043F2BB439A4202D80B4B01221A71012223
:103D900008210A48FEF715FC23882BB901220821C7
:103DA0000648FEF70EFC10BD002208210348FEF76E
:103DB00008FCF8E7A402002028030020000C0140C2
:103DC00010B4BDF804400170090A41708270120AF3
:103DD000C27003711B0A43718471240AC47110BC40
:103DE000704700002DE9F04389B00646002547E002
:103DF00005F1020956F8290004F1010804F10A034B
:103E000000EB43035B8804F1090200EB4202528895
:103E100004F1080100EB4101498804F10B0700EBB4
:103E200047004088009006A8FFF7CAFF05EB85030E
:103E30002344604A32F81370394606A800F0DCFDCE
:103E400056F82900A40004F1080300EB4303598845
:103E500004F1090300EB43035A8804F10A0300EB61
:103E600043035B880B3400EB4404608800903846C1
:103E700001F022FF5FFA88F4022CB9D90135EDB2C6
:103E8000052D01D80024F7E7346B756BD6F83C801C
:103E9000B06BFDF7BDF887B22846FDF7B9F885B2DB
:103EA0002046FDF7B5F884B24046FDF7B1F880B280
:103EB00000903B462A46214606A8FFF781FF4FF4B3
:103EC000877106A800F098FD776BD6F83880D6F891
:103ED0003C90306BFCF7A0FA04460D464846FCF7D0
:103EE0009BFACDE904014046FCF796FACDE90201C0
:103EF0003846FCF791FACDE9000122462B464FF4F3
:103F0000877001F0D9FE326C2B4B13442B4C84FB91
:103F10000324E218DC17A4EB623404F51C541034BB
:103F2000B18C96F8443000930023A2B206A8FFF7A4
:103F300047FF342106A800F05FFDB18C96F84430AD
:103F400032880092224640F2131001F0B5FE4FF481
:103F50008A7106A800F050FD728D318D0024009406
:103F6000234606A8FFF72CFF40F2151106A800F023
:103F700043FD318D00942346224640F2151001F096
:103F80009BFE96F8441000942346224606A8FFF7AD
:103F900017FF8DF81F40214606A800F02DFD23468F
:103FA000224696F84410204601F086FE09B0BDE88E
:103FB000F08300BF106B000880F0FA02C5B3A29135
:103FC00008B50268D36843F01003D3600A68136829
:103FD00043F0020313600A68136823F004031360BC
:103FE0004FF480720149FFF7D3FC08BD3004002074
:103FF00070470000000000002DE9F0410746002551
:1040000038E005F1140407EB4404668842F21070AE
:1040100000FB06F0FCF732FE8046B88E801BFCF7F2
:104020002DFE01464046FCF731FF1D49FCF72EFFEF
:10403000FCF7F2F901F09CFE11A3D3E90023FCF791
:1040400043FA11A3D3E90023FCF788F802460B4694
:104050000FA1D1E90001FCF761FB0FA3D3E9002315
:10406000FCF77AF800220F4BFCF72EFAFCF7DCFC89
:1040700060800135042DC4DDBDE8F081AFF3008020
:104080000000000000A07240000000000068AA408C
:104090000000000010BD2E41000000000010714023
:1040A00000401C460000244070B40024102214E09C
:1040B00030F814301D0A85EAE215EDB20A4E36F8E2
:1040C000155085EA0222DBB283EAE213DBB236F84E
:1040D000133083EA02220134E4B28C42E8D3500068
:1040E00080B270BC704700BF08000020F0B4002709
:1040F000102622E030F817302B4183EA963303F084
:1041000001031C011C4403EB840403EB440403EB94
:10411000C40403EB4404A4B2E400A4B223449BB25D
:1041200083EA4606B6B2013D002DE3DA22B930F843
:1041300017305BBA20F817300137B94207DD22B9D2
:1041400030F817305BBA20F817300F25ECE7700015
:1041500080B20AB940BA80B2F0BC704738B50246A6
:1041600010210A48FEF72DFA0A24094B5D68FEF774
:1041700035FD084BA3FB0030800C04FB00F4044B1E
:104180005B685B1BA342FAD338BD00BF0008014047
:10419000001000E083DE1B4300B587B0ADF80E00D1
:1041A00006AA002322F8023D3223009301230DF1D9
:1041B0000E010548FEF721FEBDF8160040BA80B298
:1041C00007B05DF804FB00BF240700202DE9F04193
:1041D00084B00E46154604AB23F80A0D012118469B
:1041E000FFF762FF0746BDF80680ADF80880ADF81E
:1041F0000A000024ADF80C40ADF80E402046FFF751
:10420000ADFF2046FFF7C8FF0120FFF7A7FF2046BC
:10421000FFF7A4FF4046FFF7BFFF3846FFF7BCFF9C
:10422000204608E036F8102004AB03EB400323F8E7
:10423000082C0130C0B20328F4D9BDF80630C3F30E
:104240000A03012B08D0BDF80830C3F30A03B3F505
:10425000187F16D2002412E0012203213046FFF716
:1042600045FFADF80E00EEE704AB03EB440333F873
:10427000080CFFF791FF25F814000134E4B2032C79
:10428000F2D90120FFF76AFF04B0BDE8F0810346D0
:10429000008840F20742904229D0B0F5816F10D3D8
:1042A000B0F58C6F37D01ED9B0F58D6F39D040F294
:1042B0006F42904222D19A885B891043184380B2A2
:1042C0007047B0F50A7F1AD0B0F5187F06D19988EB
:1042D000DA881B89084310431843704740F20722CD
:1042E000904204D0704740F20F42904205D19A8824
:1042F0001B8A1043184380B270477047704710B450
:104300009C88D989DA881B892043084310431843C5
:1043100080B210BC70479A885B891043184380B202
:1043200070479A889B891043184380B270470000F9
:104330000FB430B587B00A9C0023ADF81030ADF84B
:104340001230ADF81430ADF80830ADF80A30ADF8E1
:104350000C3023689B78EBB123681B88C3F30A03F6
:10436000012B34D02068FFF792FF02AA04A9FFF7BF
:104370002DFF23681B88C3F30A03043B0E2B53D87D
:10438000DFE803F04952575261526B5275527F5227
:104390008952A4000CAB01930B9D21682A788B787D
:1043A000DB431801034403EB0323134003430A8850
:1043B00042EAC3230B80EA8FC2F3032343EA0223BA
:1043C0001BB2BDF814201343ADF81430C4E7637971
:1043D00003F001032279D10943EA4103C2F38011BA
:1043E00043EA8103C2F3440243EAC203E28843EA98
:1043F0000223ADF810302389120A42EA0312ADF805
:104400001220A37A03F00F02BDF8143043EA02131E
:10441000ADF81430A6E7BDF808306B82BDF80A305D
:10442000AB82BDF80C30EB8207B0BDE8304004B081
:104430007047BDF808302B83BDF80A306B83BDF898
:104440000C30AB83F0E7BDF80830EB83BDF80A30E1
:104450002B84BDF80C306B84E6E7BDF80830AB84E4
:10446000BDF80A30EB84BDF80C302B85DCE7BDF8D5
:1044700008306B85BDF80A30AB85BDF80C30EB8594
:10448000D2E7BDF808302B86BDF80A306B86BDF840
:104490000C30AB86C8E7BDF80800FBF7ABFF16A3EE
:1044A000D3E90023FCF710F8FCF7BEFAE886BDF864
:1044B0000A00FBF79FFF0022114BFCF705F8FCF701
:1044C000B3FA2887BDF80C306B87ADE7BDF808302C
:1044D000AB87BDF80A00BDF80C3040EA034000226B
:1044E00007E0530020FA03F303F00303A9184B700D
:1044F00001320B2AF5DD97E79A9999999999C93F65
:1045000000001E4008B5027902F081026FF3C71265
:10451000027142796FF30002427148F6A042C280F4
:1045200046F290520281827A6FF30302827202682D
:104530004FF480719180026801219170036840F20C
:1045400021721A80FFF7F4FE08BD70B506460D46CD
:1045500014460B6800229A7010F0010F09D116F072
:10456000020F52D116F0040F61D116F0080F6DD171
:1045700070BD0B6804221A8021462846FFF7D8FE3A
:104580002B6806221A8021462846FFF7D1FE2B68A9
:1045900008221A8021462846FFF7CAFE2B680A2205
:1045A0001A8021462846FFF7C3FEE38F002BD6D1A1
:1045B00048F6A043A4F8423046F66053A4F84030D1
:1045C000002301E00133DBB20B2B16D81A4603F1AE
:1045D000080104EB41014888B4F84210884201D236
:1045E000A4F84200083204EB42025288B4F84010AA
:1045F0008A42E7D9A4F84020E4E7B4F84030B4F8A0
:1046000042209B1AA4F84430A9E72B680C221A8098
:1046100021462846FFF78CFE2B680E221A80214681
:104620002846FFF785FE2046FFF7E6FC9AE72B6851
:1046300010221A8021462846FFF77AFE2B681222A4
:104640001A8021462846FFF773FE8EE72B68022268
:104650001A8021462846FFF76BFE89E7000000001C
:104660002DE970430023CB87B1F844600A2E28D986
:104670000D46002401E00134E4B20B2C21D804F1F2
:10468000080305EB43035888B5F84230C01AFBF71E
:10469000B1FE804689463046FBF7ACFE0AA3D3E95B
:1046A0000023FBF711FF02460B4640464946FCF744
:1046B0009BF90028DFD00123A340EA8F1343EB8747
:1046C000D9E7BDE8708300BF9A9999999999D93F24
:1046D00010B50022CA870468A270036801221A80FC
:1046E000FFF726FE10BD10B5026800249470036821
:1046F00001221A80FFF71CFE10BD000000B585B036
:104700003248334B03604FF4807383600123C360EE
:10471000002343614FF46022C261436005230361BB
:10472000FCF758FF002832D10023019301230293A4
:104730000723039301A92548FCF7B2FD60BB0123C1
:1047400001930223029301A92048FCF7A9FD40BB75
:10475000022301930323029301A91C48FCF7A0FD47
:1047600020BB03230193042302930DEB030117489D
:10477000FCF796FDF8B9092301930523029301A9DB
:104780001248FCF78DFDD8B905B05DF804FB452152
:10479000104800F027FCC7E74F210E4800F022FC2C
:1047A000CDE758210B4800F01DFCD1E761210948F5
:1047B00000F018FCD5E76A21064800F013FCDAE7A0
:1047C0007321044800F00EFCDEE700BF3005002036
:1047D00000240140986B00080268204B9A4200D0E8
:1047E000704730B587B0044603F56C439A6942F4CC
:1047F00000729A619B6903F400730193019B0F237C
:1048000002930325039502A91548FDF7E9FD02234C
:104810000293039502A91348FDF7E2FD1248134BDA
:1048200003600023436083608023C3604FF4007300
:1048300003614FF400634361202383614FF480538D
:10484000C361FDF72BFC20B9074B23625C6207B004
:1048500030BD9F21064800F0C5FBF5E7002401406C
:1048600000080140000C01406005002008000240E3
:10487000986B000840F2213303600023436083609B
:104880000361C36104E0C218002111750133DBB27A
:10489000072BF8D97047000008B50E480E4B03608F
:1048A0000923436000238360C3604FF4A0220261A8
:1048B000436183610122C261036243628362C36216
:1048C000FCF794FF00B908BD4B21044800F08AFBB7
:1048D000F9E700BFAC05002000640040A86B0008A9
:1048E00002681C4B9A4200D0704730B587B003F580
:1048F000D633DA6942F00072DA61DB6903F00073E3
:104900000193019B4FF400630293002403940494E9
:10491000114D02A92846FDF763FD4FF48053029321
:10492000022303930323059302A92846FDF758FDAC
:10493000224621461320FDF72FFB1320FDF760FBD5
:10494000224621461420FDF727FB1420FDF758FBD3
:1049500007B030BD006400400008014000B58BB0D6
:104960000023009301934EF21F2202924FF6F87239
:1049700003920493059306930123079308930E2350
:10498000099369460548FCF7AEFE10B90BB05DF817
:1049900004FBB521024800F025FBF7E7AC05002039
:1049A000A86B000810B50A4C2046FFF763FF094BBF
:1049B00004F124021A635C634FF4407363620123C1
:1049C000A36200232363E3620823636310BD00BF77
:1049D000AC020020AC05002008B500210448FDF71A
:1049E0004FF800B908BDD121024800F0FBFAF9E701
:1049F000AC050020A86B000808B5094B1B6B1960BB
:104A0000002304E0C15C1A4411750133DBB2044A8F
:104A1000126B11698B42F5D30148FCF782FF08BD88
:104A2000AC05002010B5044603681022DA600021AE
:104A3000FDF726F823682022DA60002284F83C2063
:104A400021684B6943F40F4343F05B034B6184F8E7
:104A50003D2010BD00B583B00E4B5A6942F00102F3
:104A60005A615B6903F001030193019B0022114627
:104A70000B20FDF791FA0B20FDF7C2FA0022114638
:104A80000D20FDF789FA0D20FDF7BAFA03B05DF8A5
:104A900004FB00BF001002400E4BDA6822F0807267
:104AA000DA60DA6842F08072DA600B4B1A6822F042
:104AB00001021A601A6842F001021A6000225A606C
:104AC00000BF00BF00BF5B680BB9012070471046F4
:104AD000704700BFF0ED00E0001000E0114B1B88B4
:104AE0009BB2114A128892B288B1012813D13AB907
:104AF0004EF6EE618B4201D001230DE013460BE030
:104B000063B94EF6EE618A4206D1012304E01BB17F
:104B100032B9012300E0002318467047AB23FBE7BE
:104B2000AB23F9E7000001080004010870B5054651
:104B30000E460120FFF7D2FFAB281ED0840204F1FD
:104B4000006404F58034431C0C4800EB832084424D
:104B500012D22368B3F1FF3F01D00434F7E73146A6
:104B6000204600F031F908B180B206E02946A01CC9
:104B700000F02AF980B200E0802070BDFEFF00083E
:104B800008B50B4800F0FAF8034608B1184608BD0E
:104B90000021074800F018F903460028F6D100F17B
:104BA000006000F5823000F0E9F80346EEE700BF50
:104BB0000000010838B504460D460020FFF78EFFBF
:104BC000AB2814D08202431C094800EB8320094B18
:104BD000134483420AD203889BB2A34201D0043813
:104BE000F5E730F8023C2B80002000E0012038BDC2
:104BF000FEFF00080200010870B55A4B1C88A4B2E1
:104C000003F580631D88ADB24EF6EE639C4224D05E
:104C10004FF6FF739C4206D0002C63D0FFF7B0FF25
:104C200083B2184670BD3DB14EF6EE639D4208D08A
:104C3000FFF7A6FF83B2F4E74A4800F09FF883B27B
:104C4000EFE7484800F09AF883B2002BE9D1002141
:104C5000454800F0B9F883B2E3E745B34FF6FF7378
:104C60009D4233D0FFF78CFF83B2DAE72EB20CE01F
:104C70000135ADB2022D1DD83C4B1B889BB22C4692
:104C80003B4A32F815008342F0D0B442F0D03949A3
:104C9000FFF790FF0128EBD0364B1988344B33F8DF
:104CA0001400FFF743FF03460028E1D0B9E74FF0B7
:104CB000FF36DFE700212B4800F086F883B2002B97
:104CC000AFD1294800F05AF883B2AAE7264800F08D
:104CD00055F883B2002BA4D10021224800F074F8CB
:104CE00083B29EE735B14FF6FF739D4206D04FF079
:104CF000FF360CE0FFF744FF83B292E71A4800F05A
:104D00003DF883B28DE726B20CE00134A4B2022C48
:104D10001AD8194B1B889BB22546154A32F8140045
:104D20008342F0D0B542F0D01249FFF743FF01288B
:104D3000EBD0104B19880E4B33F81500FFF7F6FE39
:104D400003460028E1D06CE70021074800F03CF85A
:104D500083B2002B7FF465AF024800F00FF883B2F6
:104D60005FE700BF00000108000401080600010819
:104D70000C020020EC0200200604010810B50446D5
:104D800040F6FF70FDF7F6FA034608B1184610BD6D
:104D90000C4B1A6942F002021A615C611A6942F016
:104DA00040021A6140F6FF70FDF7E4FA034603285B
:104DB000ECD004490A6922F00202D204D20C0A6142
:104DC000E4E700BF0020024038B504460D460F203E
:104DD000FDF7D0FA034608B1184638BD094A1369F1
:104DE00043F00103136125800F20FDF7C3FA03464A
:104DF0000328F1D003490A6922F00102D204D20C3F
:104E00000A61E9E7002002402DE9F04389B0454BF3
:104E10009A6942F010029A619A6902F010020092B7
:104E2000009A9A6942F020029A619A6902F020027F
:104E30000192019A9A6942F004029A619A6902F019
:104E400004020292029A9A6942F008029A619B69EE
:104E500003F008030393039BDFF8D89000224FF47C
:104E600000514846FDF7ADFB2F4E00221021304681
:104E7000FDF7A7FB2D4F002298213846FDF7A1FB37
:104E80004FF4005304934FF00108CDF81480002430
:104E900006940225079504A94846FDF7A1FA0323C5
:104EA0000493059304A93046FDF79AFA102304935E
:104EB000CDF81480069407950DEB03013046FDF7FD
:104EC0008FFA4FF4A0630493194B0593069404A939
:104ED0003046FDF785FA98230493CDF814800694A4
:104EE000079504A93846FDF77BFA4FF44073049305
:104EF0000594069504A93846FDF772FA2246214624
:104F00001720FDF749F81720FDF77AF822462146C9
:104F10002820FDF741F82820FDF772F809B0BDE818
:104F2000F08300BF0010024000080140000C014067
:104F3000000011100010014010B50446084621463B
:104F4000FBF7E6FD4FF07051FBF7ECFE2146FBF757
:104F5000E1FD10BD70B500241BE01D4B1E681D4B0C
:104F600053F82400FBF78AFE1B4D55F82410FBF77D
:104F7000D9FE05EB84052969FBF7CAFD04F10C0590
:104F8000014656F82500FFF7D7FF46F82500013403
:104F9000E4B2032CE1D90E4B1C68A68C0D4B1869AA
:104FA000FA30FBF727FA00220C4BFBF78DFAFBF7E0
:104FB0005BFD05463046FBF75DFE2946FFF7BCFF6B
:104FC000FCF726F8A084064A13680133136070BD0D
:104FD000FC05002010070020606B00080000124054
:104FE000F0020020FEE7000000B595B001220A9211
:104FF0004FF480330B9300210C910E9202221192F8
:1050000012934FF4E01313930AA8FDF705FB50BB6E
:105010000F23059302210691002307934FF480622A
:105020000892099305A8FDF71DFD00BB022301931B
:105030004FF40043039301A8FDF7F6FDE0B9FDF737
:10504000CDFD104BA3FB00308009FCF7E5FF0420E9
:10505000FCF7F8FF002211464FF0FF30FCF79CFFF1
:1050600015B05DF804FBF7210748FFF7BBFF40F2DE
:1050700005110548FFF7B6FF4FF486710248FFF7A8
:10508000B1FF00BFD34D6210B86B000808B5FCF744
:105090000BF8FFF7A9FFFFF7B7FEFFF7DBFCFFF701
:1050A0002DFBFFF7F9FB00F043FB00F0A7FC00F03D
:1050B00053FD00F0DFFC00F06DFDFDF741F9FFF757
:1050C0009BFDFFF7E9FC1C491C48FEF779FF4821CE
:1050D000012001F09FF81A4B1860FEF700FD052231
:1050E00018491948FCF7B8F91848FEF71BF8184892
:1050F000FEF718F8012000F07BF8114C2068FEF74D
:105100001DFD2068FEF78EFD2068FEF76BFE20680F
:1051100000F092F94FF47A740E4B5D68FDF75EFD76
:105120000D4BA3FB0030800C04FB00F4094B5B68C3
:105130005B1BA342FAD3E0E70008002044080020EC
:10514000FC0500201007002030050020C0070020CB
:1051500080070020001000E083DE1B4338B50546C1
:1051600000E05B680B4B1B681A6812F0200FF8D147
:105170002846FBF76DFF074C322382B229462046B2
:10518000FEF723FB3223032203492046FEF71DFBD3
:1051900038BD00BF440800201402002000B583B0D1
:1051A00002A9002341F8043D322304220F48FEF7F0
:1051B0007CFB9DF80430012B03D0002003B05DF888
:1051C00004FB9DF80530FF2B01D00020F6E79DF889
:1051D0000630FF2B01D00020F0E79DF80730FF2BB1
:1051E00001D00020EAE70120E8E700BF44080020E2
:1051F00000B585B0002301930293ADF80C30024650
:10520000054901A801F0B8F801A8FFF7A7FFFFF7CB
:10521000C5FF05B05DF804FBD86B000870B59AB007
:1052200006460C4632252A4600210DA801F024F836
:105230002A460021684601F01FF8002305E0E15CE2
:105240001AAA1A4402F8681C0133132BF7DD6B46C7
:10525000324605490DA801F08FF80DA8FFF77EFF33
:10526000FFF79CFF1AB070BDF06B000800B585B069
:10527000002301930293ADF80C300B460246064919
:1052800001A801F079F801A8FFF768FFFFF786FF92
:1052900005B05DF804FB00BF006C000800B587B0E6
:1052A0000023019302930393049305930B46024654
:1052B000054901A801F060F801A8FFF74FFFFFF7CB
:1052C0006DFF07B05DF804FB0C6C000800B585B0FD
:1052D0000023009301930293CDF80B300B46024656
:1052E0000549684601F048F86846FFF737FFFFF7C1
:1052F00055FF05B05DF804FB246C000800B585B0CF
:105300000023009301930293CDF80B300B46024625
:105310000549684601F030F86846FFF71FFFFFF7C0
:105320003DFF05B05DF804FB3C6C000800B585B09E
:105330000023009301930293CDF80B300B460246F5
:105340000549684601F018F86846FFF707FFFFF7C0
:1053500025FF05B05DF804FB486C000800B585B07A
:105360000023009301930293CDF80B300B460246C5
:105370000549684601F000F86846FFF7EFFEFFF7C1
:105380000DFF05B05DF804FBE86C000800B585B0C2
:105390000023009301930293CDF80B300B46024695
:1053A0000549684600F0E8FF6846FFF7D7FEFFF7BB
:1053B000F5FE05B05DF804FB1C6D00081B4B1B7867
:1053C000712B00D07047194B5B79FF2BFAD1174B2B
:1053D0009B79FF2BF6D1154BDB79FF2BF2D110B562
:1053E000124B5B7883B113B15A1E052A15DD9BB1B0
:1053F000DA1F052A10DC0E4A13700E4B01221A70B8
:105400000320FFF7F5FE07E00024094B1C70012084
:10541000FFF7EEFE074B1C7010BD054A1370054BDD
:1054200000221A700220FFF7E3FEF5E730030020A8
:1054300008060020F502002030B587B00546B14BC4
:105440001B78012B7ED0AF4B5B78012B00F0838063
:10545000AC4B9B78012B00F08780AA4BDB78012BAB
:1054600000F08B80A74B1B79012B00F08F80A649A1
:105470000020FFF7D3FE0A210020FFF7F7FE3221BC
:105480000020FFF76BFFA14B1B78002B00F08780FB
:10549000581E052840F3F080073B052B00F33081B0
:1054A00006210120FFF772FF984C21780739002070
:1054B000FFF70CFF2378053B55F82330B3F8401075
:1054C0000020FFF733FF2378053B55F82330B3F86E
:1054D00042100120FFF72AFF2378053B55F82330BF
:1054E000B3F844100220FFF721FF2378053B55F85D
:1054F0002330D98E0320FFF719FF2378053B55F899
:105500002330198F0420FFF711FF286BFBF75AFD9A
:1055100001B20520FFF70AFFA86BFBF753FD01B2AC
:105520000620FFF703FFE86BFBF74CFD01B20720F5
:10553000FFF7FCFE686BFBF745FD01B20820FFF7A3
:10554000F5FEDDE072490020FFF768FE0B21002028
:10555000FFF78CFE93E76F490020FFF75FFE0B21FA
:105560000020FFF783FE8AE76B490020FFF756FE15
:105570000B210020FFF77AFE81E768490020FFF742
:105580004DFE0B210020FFF771FE78E764490020F3
:10559000FFF744FE0B210020FFF768FE6FE795F848
:1055A00044100020FFF7F2FE00210846FFF78EFEB0
:1055B000E98C5C4BA3FB0131C9080020FFF7B6FE64
:1055C000A98C594BA3FB013149090120FFF7AEFE1D
:1055D000286BFBF7F7FC01B20220FFF7A7FE686B10
:1055E000FBF7F0FC01B20320FFF7A0FE4F4C4FF495
:1055F00080712046FCF7DEFF01460420FFF796FE8F
:105600004FF400712046FCF7D5FF01460520FFF757
:105610008DFE4FF480712046FCF7CCFF00F10C01A9
:105620000020FFF73BFE4FF400712046FCF7C2FF5D
:1056300000F10C010120FFF731FE61E0821C55F8FA
:10564000222003F1080102EB4102518806AA02EB75
:10565000430222F8181C0133DBB20B2BEED92B6A64
:105660001B7913F0010F09D1284B1978013900205B
:10567000FFF72CFE002408E00023EEE706210120BE
:10568000FFF784FEF0E70134E4B20B2C17D806AB29
:1056900003EB440333F8181C2046FFF747FE1B4B6F
:1056A0001B78013355F82330DB8F234113F0010FB2
:1056B000E9D04FF6E0712046FFF720FEE3E7134CF8
:1056C0002378013355F82330598E0C20FFF72EFE36
:1056D0002378013355F82330198E0D20FFF726FE6D
:1056E0002378013355F82330D98D0E20FFF71EFEA5
:1056F0002378013355F82330998D0F20FFF716FEDC
:1057000007B030BD28030020986D0008080600206F
:10571000486D0008586D0008686D00087C6D000831
:10572000886D0008CDCCCCCC1F85EB51000C01401E
:1057300008B51048104B03604FF482734360002398
:1057400083604FF40062C260036143614FF40072F2
:1057500082613022C2610362436283620A23C362B0
:10576000FDF767FC00B908BD45210448FFF73AFC86
:10577000F9E700BF2407002000300140A06D0008B9
:105780000268134B9A4200D0704710B586B003F5FB
:1057900060439A6942F480529A619B6903F4805392
:1057A0000193019BA02302930223039303230593F8
:1057B000084C02A92046FCF713FE40230293002365
:1057C0000393049302A92046FCF70AFE06B010BD1D
:1057D000003001400008014000B583B0244B9A69B5
:1057E00042F001029A619A6902F001020092009A65
:1057F000DA6942F08052DA61DB6903F08053019389
:10580000019B0320FCF7B6FB002211466FF00B0052
:10581000FCF7C2FB002211466FF00A00FCF7BCFB4C
:10582000002211466FF00900FCF7B6FB002211467A
:105830006FF00400FCF7B0FB002211466FF003008C
:10584000FCF7AAFB002211466FF00100FCF7A4FB55
:10585000002211464FF0FF30FCF79EFB054A5368CB
:1058600023F0E06343F00073536003B05DF804FB82
:1058700000100240000001407047FEE7FEE7FEE72F
:10588000FEE770477047704708B5FBF71FFCFCF751
:10589000EAFB08BD08B50248FCF776FC08BD00BF6E
:1058A0006005002008B50248FCF76EFC08BD00BF8B
:1058B0000008002008B50248FBF75EFC08BD00BFE9
:1058C0003005002008B50248FCF756FA08BD00BFB5
:1058D000AC05002008B50348FCF74EFAFFF77CF84A
:1058E00008BD00BFAC05002008B54FF48070FCF780
:1058F0006FFE08BD08B50248FDF7A9FC08BD00BF52
:10590000C007002010B51E48FDF7A1FC1D4A1388F2
:1059100001339BB2138041F2883293420DD04EF690
:10592000602293421BD0174B1A884EF660239A428E
:1059300002D9144B00221A8010BD134B1B680122A0
:10594000DA70002408E0104B1B68A21C53F82210E8
:10595000186AFEF785FE0134052CF4DDE3E70A4BF7
:105960001B680024DC7008E0074B1B68A21C53F87E
:105970002210186AFEF7ACFE0134052CF4DDD2E7E4
:10598000800700207C070020FC05002008B50349A3
:105990000348FEF72DFBFFF711FD08BD00080020AE
:1059A0004408002008B54FF48060FCF711FE08BDE4
:1059B0000F4B1A6842F001021A6059680D4A0A40FA
:1059C0005A601A6822F0847222F480321A601A68CF
:1059D00022F480221A605A6822F4FE025A604FF4C0
:1059E0001F029A60044B4FF000629A60704700BF3C
:1059F000001002400000FFF800ED00E000B587B0A5
:105A000019481A4B03604FF4E1534360002383604D
:105A100041F28832C26003618361FDF70FFD98B9DE
:105A200006A94FF4805341F8103D0F48FDF786FB5F
:105A300078B900230093019369460B48FDF717FDE1
:105A400060B907B05DF804FB40210948FFF7CAFAC6
:105A5000E6E746210648FFF7C5FAEAE74D21044884
:105A6000FFF7C0FAEDE700BFC007002000040040C8
:105A7000B06D000800B587B01848194B03604FF4AB
:105A800034734360002383606422C26003618361D6
:105A9000FDF7D4FC98B906A94FF4805341F8103DA6
:105AA0000E48FDF74BFB78B900230093019369463C
:105AB0000A48FDF7DCFC60B907B05DF804FB5F2124
:105AC0000848FFF78FFAE6E765210648FFF78AFAEC
:105AD000EAE76C210348FFF785FAEDE7800700202D
